{"contracts/ERC20.sol":{"Ownable":{"abi":[{"constant":true,"inputs":[],"name":"owner","outputs":[{"name":"","type":"address"}],"payable":false,"stateMutability":"view","type":"function"},{"constant":false,"inputs":[{"name":"newOwner","type":"address"}],"name":"transferOwnership","outputs":[],"payable":false,"stateMutability":"nonpayable","type":"function"},{"inputs":[],"payable":false,"stateMutability":"nonpayable","type":"constructor"}],"devdoc":{"methods":{"transferOwnership(address)":{"details":"Allows the current owner to transfer control of the contract to a newOwner.","params":{"newOwner":"The address to transfer ownership to."}}},"title":"Ownable"},"evm":{"assembly":"    /* \"contracts/ERC20.sol\":1201:1924  contract Ownable {... */\n  mstore(0x40, 0x60)\n    /* \"contracts/ERC20.sol\":1378:1439  function Ownable() public {... */\n  jumpi(tag_1, iszero(callvalue))\n  0x0\n  dup1\n  revert\ntag_1:\n    /* \"contracts/ERC20.sol\":1422:1432  msg.sender */\n  caller\n    /* \"contracts/ERC20.sol\":1414:1419  owner */\n  0x0\n  dup1\n    /* \"contracts/ERC20.sol\":1414:1432  owner = msg.sender */\n  0x100\n  exp\n  dup2\n  sload\n  dup2\n  0xffffffffffffffffffffffffffffffffffffffff\n  mul\n  not\n  and\n  swap1\n  dup4\n  0xffffffffffffffffffffffffffffffffffffffff\n  and\n  mul\n  or\n  swap1\n  sstore\n  pop\n    /* \"contracts/ERC20.sol\":1201:1924  contract Ownable {... */\n  dataSize(sub_0)\n  dup1\n  dataOffset(sub_0)\n  0x0\n  codecopy\n  0x0\n  return\nstop\n\nsub_0: assembly {\n        /* \"contracts/ERC20.sol\":1201:1924  contract Ownable {... */\n      mstore(0x40, 0x60)\n      calldataload(0x0)\n      0x100000000000000000000000000000000000000000000000000000000\n      swap1\n      div\n      0xffffffff\n      and\n      dup1\n      0x8da5cb5b\n      eq\n      tag_2\n      jumpi\n      dup1\n      0xf2fde38b\n      eq\n      tag_3\n      jumpi\n      0x0\n      dup1\n      revert\n        /* \"contracts/ERC20.sol\":1224:1244  address public owner */\n    tag_2:\n      jumpi(tag_4, iszero(callvalue))\n      0x0\n      dup1\n      revert\n    tag_4:\n      tag_5\n      jump(tag_6)\n    tag_5:\n      mload(0x40)\n      dup1\n      dup3\n      0xffffffffffffffffffffffffffffffffffffffff\n      and\n      0xffffffffffffffffffffffffffffffffffffffff\n      and\n      dup2\n      mstore\n      0x20\n      add\n      swap2\n      pop\n      pop\n      mload(0x40)\n      dup1\n      swap2\n      sub\n      swap1\n      return\n        /* \"contracts/ERC20.sol\":1774:1921  function transferOwnership(address newOwner) public onlyOwner {... */\n    tag_3:\n      jumpi(tag_7, iszero(callvalue))\n      0x0\n      dup1\n      revert\n    tag_7:\n      tag_8\n      0x4\n      dup1\n      dup1\n      calldataload\n      0xffffffffffffffffffffffffffffffffffffffff\n      and\n      swap1\n      0x20\n      add\n      swap1\n      swap2\n      swap1\n      pop\n      pop\n      jump(tag_9)\n    tag_8:\n      stop\n        /* \"contracts/ERC20.sol\":1224:1244  address public owner */\n    tag_6:\n      0x0\n      dup1\n      swap1\n      sload\n      swap1\n      0x100\n      exp\n      swap1\n      div\n      0xffffffffffffffffffffffffffffffffffffffff\n      and\n      dup2\n      jump\t// out\n        /* \"contracts/ERC20.sol\":1774:1921  function transferOwnership(address newOwner) public onlyOwner {... */\n    tag_9:\n        /* \"contracts/ERC20.sol\":1582:1587  owner */\n      0x0\n      dup1\n      swap1\n      sload\n      swap1\n      0x100\n      exp\n      swap1\n      div\n      0xffffffffffffffffffffffffffffffffffffffff\n      and\n        /* \"contracts/ERC20.sol\":1568:1587  msg.sender == owner */\n      0xffffffffffffffffffffffffffffffffffffffff\n      and\n        /* \"contracts/ERC20.sol\":1568:1578  msg.sender */\n      caller\n        /* \"contracts/ERC20.sol\":1568:1587  msg.sender == owner */\n      0xffffffffffffffffffffffffffffffffffffffff\n      and\n      eq\n        /* \"contracts/ERC20.sol\":1560:1588  require(msg.sender == owner) */\n      iszero\n      iszero\n      tag_11\n      jumpi\n      0x0\n      dup1\n      revert\n    tag_11:\n        /* \"contracts/ERC20.sol\":1870:1871  0 */\n      0x0\n        /* \"contracts/ERC20.sol\":1850:1872  newOwner != address(0) */\n      0xffffffffffffffffffffffffffffffffffffffff\n      and\n        /* \"contracts/ERC20.sol\":1850:1858  newOwner */\n      dup2\n        /* \"contracts/ERC20.sol\":1850:1872  newOwner != address(0) */\n      0xffffffffffffffffffffffffffffffffffffffff\n      and\n      eq\n      iszero\n        /* \"contracts/ERC20.sol\":1846:1915  if (newOwner != address(0)) {... */\n      iszero\n      tag_13\n      jumpi\n        /* \"contracts/ERC20.sol\":1896:1904  newOwner */\n      dup1\n        /* \"contracts/ERC20.sol\":1888:1893  owner */\n      0x0\n      dup1\n        /* \"contracts/ERC20.sol\":1888:1904  owner = newOwner */\n      0x100\n      exp\n      dup2\n      sload\n      dup2\n      0xffffffffffffffffffffffffffffffffffffffff\n      mul\n      not\n      and\n      swap1\n      dup4\n      0xffffffffffffffffffffffffffffffffffffffff\n      and\n      mul\n      or\n      swap1\n      sstore\n      pop\n        /* \"contracts/ERC20.sol\":1846:1915  if (newOwner != address(0)) {... */\n    tag_13:\n        /* \"contracts/ERC20.sol\":1774:1921  function transferOwnership(address newOwner) public onlyOwner {... */\n      pop\n      jump\t// out\n\n    auxdata: 0xa165627a7a723058205ba1c5b0c389b27580f2ba9ff2f101e1bb2d70f10e4e174b38289852208359980029\n}\n","bytecode":{"linkReferences":{},"object":"6060604052341561000f57600080fd5b336000806101000a81548173ffffffffffffffffffffffffffffffffffffffff021916908373ffffffffffffffffffffffffffffffffffffffff1602179055506101fc8061005e6000396000f30060606040526000357c0100000000000000000000000000000000000000000000000000000000900463ffffffff1680638da5cb5b14610048578063f2fde38b1461009d57600080fd5b341561005357600080fd5b61005b6100d6565b604051808273ffffffffffffffffffffffffffffffffffffffff1673ffffffffffffffffffffffffffffffffffffffff16815260200191505060405180910390f35b34156100a857600080fd5b6100d4600480803573ffffffffffffffffffffffffffffffffffffffff169060200190919050506100fb565b005b6000809054906101000a900473ffffffffffffffffffffffffffffffffffffffff1681565b6000809054906101000a900473ffffffffffffffffffffffffffffffffffffffff1673ffffffffffffffffffffffffffffffffffffffff163373ffffffffffffffffffffffffffffffffffffffff1614151561015657600080fd5b600073ffffffffffffffffffffffffffffffffffffffff168173ffffffffffffffffffffffffffffffffffffffff161415156101cd57806000806101000a81548173ffffffffffffffffffffffffffffffffffffffff021916908373ffffffffffffffffffffffffffffffffffffffff1602179055505b505600a165627a7a723058205ba1c5b0c389b27580f2ba9ff2f101e1bb2d70f10e4e174b38289852208359980029","opcodes":"PUSH1 0x60 PUSH1 0x40 MSTORE CALLVALUE ISZERO PUSH2 0xF JUMPI PUSH1 0x0 DUP1 REVERT JUMPDEST CALLER PUSH1 0x0 DUP1 PUSH2 0x100 EXP DUP2 SLOAD DUP2 PUSH20 0xFFFFFFFFFFFFFFFFFFFFFFFFFFFFFFFFFFFFFFFF MUL NOT AND SWAP1 DUP4 PUSH20 0xFFFFFFFFFFFFFFFFFFFFFFFFFFFFFFFFFFFFFFFF AND MUL OR SWAP1 SSTORE POP PUSH2 0x1FC DUP1 PUSH2 0x5E PUSH1 0x0 CODECOPY PUSH1 0x0 RETURN STOP PUSH1 0x60 PUSH1 0x40 MSTORE PUSH1 0x0 CALLDATALOAD PUSH29 0x100000000000000000000000000000000000000000000000000000000 SWAP1 DIV PUSH4 0xFFFFFFFF AND DUP1 PUSH4 0x8DA5CB5B EQ PUSH2 0x48 JUMPI DUP1 PUSH4 0xF2FDE38B EQ PUSH2 0x9D JUMPI PUSH1 0x0 DUP1 REVERT JUMPDEST CALLVALUE ISZERO PUSH2 0x53 JUMPI PUSH1 0x0 DUP1 REVERT JUMPDEST PUSH2 0x5B PUSH2 0xD6 JUMP JUMPDEST PUSH1 0x40 MLOAD DUP1 DUP3 PUSH20 0xFFFFFFFFFFFFFFFFFFFFFFFFFFFFFFFFFFFFFFFF AND PUSH20 0xFFFFFFFFFFFFFFFFFFFFFFFFFFFFFFFFFFFFFFFF AND DUP2 MSTORE PUSH1 0x20 ADD SWAP2 POP POP PUSH1 0x40 MLOAD DUP1 SWAP2 SUB SWAP1 RETURN JUMPDEST CALLVALUE ISZERO PUSH2 0xA8 JUMPI PUSH1 0x0 DUP1 REVERT JUMPDEST PUSH2 0xD4 PUSH1 0x4 DUP1 DUP1 CALLDATALOAD PUSH20 0xFFFFFFFFFFFFFFFFFFFFFFFFFFFFFFFFFFFFFFFF AND SWAP1 PUSH1 0x20 ADD SWAP1 SWAP2 SWAP1 POP POP PUSH2 0xFB JUMP JUMPDEST STOP JUMPDEST PUSH1 0x0 DUP1 SWAP1 SLOAD SWAP1 PUSH2 0x100 EXP SWAP1 DIV PUSH20 0xFFFFFFFFFFFFFFFFFFFFFFFFFFFFFFFFFFFFFFFF AND DUP2 JUMP JUMPDEST PUSH1 0x0 DUP1 SWAP1 SLOAD SWAP1 PUSH2 0x100 EXP SWAP1 DIV PUSH20 0xFFFFFFFFFFFFFFFFFFFFFFFFFFFFFFFFFFFFFFFF AND PUSH20 0xFFFFFFFFFFFFFFFFFFFFFFFFFFFFFFFFFFFFFFFF AND CALLER PUSH20 0xFFFFFFFFFFFFFFFFFFFFFFFFFFFFFFFFFFFFFFFF AND EQ ISZERO ISZERO PUSH2 0x156 JUMPI PUSH1 0x0 DUP1 REVERT JUMPDEST PUSH1 0x0 PUSH20 0xFFFFFFFFFFFFFFFFFFFFFFFFFFFFFFFFFFFFFFFF AND DUP2 PUSH20 0xFFFFFFFFFFFFFFFFFFFFFFFFFFFFFFFFFFFFFFFF AND EQ ISZERO ISZERO PUSH2 0x1CD JUMPI DUP1 PUSH1 0x0 DUP1 PUSH2 0x100 EXP DUP2 SLOAD DUP2 PUSH20 0xFFFFFFFFFFFFFFFFFFFFFFFFFFFFFFFFFFFFFFFF MUL NOT AND SWAP1 DUP4 PUSH20 0xFFFFFFFFFFFFFFFFFFFFFFFFFFFFFFFFFFFFFFFF AND MUL OR SWAP1 SSTORE POP JUMPDEST POP JUMP STOP LOG1 PUSH6 0x627A7A723058 KECCAK256 JUMPDEST LOG1 0xc5 0xb0 0xc3 DUP10 0xb2 PUSH22 0x80F2BA9FF2F101E1BB2D70F10E4E174B382898522083 MSIZE SWAP9 STOP 0x29 "},"gasEstimates":{"creation":{"codeDepositCost":"101600","executionCost":"20408","totalCost":"122008"},"external":{"owner()":"413","transferOwnership(address)":"20755"}},"methodIdentifiers":{"owner()":"8da5cb5b","transferOwnership(address)":"f2fde38b"}},"userdoc":{"methods":{}}}}}